{
  "_format": "hh-sol-artifact-1",
  "contractName": "Escrow",
  "sourceName": "contracts/Escrow.sol",
  "abi": [
    {
      "anonymous": false,
      "inputs": [
        {
          "indexed": true,
          "internalType": "uint256",
          "name": "jobId",
          "type": "uint256"
        },
        {
          "indexed": false,
          "internalType": "uint256",
          "name": "amount",
          "type": "uint256"
        }
      ],
      "name": "FundsDeposited",
      "type": "event"
    },
    {
      "anonymous": false,
      "inputs": [
        {
          "indexed": true,
          "internalType": "uint256",
          "name": "jobId",
          "type": "uint256"
        }
      ],
      "name": "JobCompleted",
      "type": "event"
    },
    {
      "anonymous": false,
      "inputs": [
        {
          "indexed": true,
          "internalType": "uint256",
          "name": "jobId",
          "type": "uint256"
        },
        {
          "indexed": true,
          "internalType": "address",
          "name": "client",
          "type": "address"
        },
        {
          "indexed": true,
          "internalType": "address",
          "name": "freelancer",
          "type": "address"
        }
      ],
      "name": "JobCreated",
      "type": "event"
    },
    {
      "anonymous": false,
      "inputs": [
        {
          "indexed": true,
          "internalType": "uint256",
          "name": "jobId",
          "type": "uint256"
        },
        {
          "indexed": false,
          "internalType": "uint256",
          "name": "amount",
          "type": "uint256"
        }
      ],
      "name": "PaymentReleased",
      "type": "event"
    },
    {
      "inputs": [
        {
          "internalType": "address",
          "name": "freelancer",
          "type": "address"
        }
      ],
      "name": "createJob",
      "outputs": [
        {
          "internalType": "uint256",
          "name": "",
          "type": "uint256"
        }
      ],
      "stateMutability": "nonpayable",
      "type": "function"
    },
    {
      "inputs": [
        {
          "internalType": "uint256",
          "name": "jobId",
          "type": "uint256"
        }
      ],
      "name": "depositFunds",
      "outputs": [],
      "stateMutability": "payable",
      "type": "function"
    },
    {
      "inputs": [
        {
          "internalType": "uint256",
          "name": "jobId",
          "type": "uint256"
        }
      ],
      "name": "getJob",
      "outputs": [
        {
          "internalType": "address",
          "name": "client",
          "type": "address"
        },
        {
          "internalType": "address",
          "name": "freelancer",
          "type": "address"
        },
        {
          "internalType": "uint256",
          "name": "amount",
          "type": "uint256"
        },
        {
          "internalType": "enum Escrow.Status",
          "name": "status",
          "type": "uint8"
        }
      ],
      "stateMutability": "view",
      "type": "function"
    },
    {
      "inputs": [],
      "name": "jobCount",
      "outputs": [
        {
          "internalType": "uint256",
          "name": "",
          "type": "uint256"
        }
      ],
      "stateMutability": "view",
      "type": "function"
    },
    {
      "inputs": [
        {
          "internalType": "uint256",
          "name": "jobId",
          "type": "uint256"
        }
      ],
      "name": "markCompleted",
      "outputs": [],
      "stateMutability": "nonpayable",
      "type": "function"
    },
    {
      "inputs": [
        {
          "internalType": "uint256",
          "name": "jobId",
          "type": "uint256"
        }
      ],
      "name": "releasePayment",
      "outputs": [],
      "stateMutability": "nonpayable",
      "type": "function"
    }
  ],
  "bytecode": "0x608060405234801561001057600080fd5b50611067806100206000396000f3fe6080604052600436106100555760003560e01c80633b76594d1461005a5780634c5d8a0f1461007657806388685cd9146100a1578063bf22c457146100ca578063cac5c5121461010a578063d004e98514610133575b600080fd5b610074600480360381019061006f9190610b62565b610170565b005b34801561008257600080fd5b5061008b610370565b6040516100989190610b9e565b60405180910390f35b3480156100ad57600080fd5b506100c860048036038101906100c39190610b62565b610376565b005b3480156100d657600080fd5b506100f160048036038101906100ec9190610b62565b6105a9565b6040516101019493929190610c71565b60405180910390f35b34801561011657600080fd5b50610131600480360381019061012c9190610b62565b6106e6565b005b34801561013f57600080fd5b5061015a60048036038101906101559190610ce2565b610889565b6040516101679190610b9e565b60405180910390f35b803373ffffffffffffffffffffffffffffffffffffffff166001600083815260200190815260200160002060000160009054906101000a900473ffffffffffffffffffffffffffffffffffffffff1673ffffffffffffffffffffffffffffffffffffffff1614610215576040517f08c379a000000000000000000000000000000000000000000000000000000000815260040161020c90610d6c565b60405180910390fd5b81600080600381111561022b5761022a610bfa565b5b6001600084815260200190815260200160002060030160009054906101000a900460ff16600381111561026157610260610bfa565b5b146102a1576040517f08c379a000000000000000000000000000000000000000000000000000000000815260040161029890610dd8565b60405180910390fd5b600034116102e4576040517f08c379a00000000000000000000000000000000000000000000000000000000081526004016102db90610e44565b60405180910390fd5b600060016000868152602001908152602001600020905034816002018190555060018160030160006101000a81548160ff0219169083600381111561032c5761032b610bfa565b5b0217905550847f26679fa1f3868c950e9362f1106cf73f3318de0280e0411a3c68e4b463eadd4f346040516103619190610b9e565b60405180910390a25050505050565b60005481565b803373ffffffffffffffffffffffffffffffffffffffff166001600083815260200190815260200160002060000160009054906101000a900473ffffffffffffffffffffffffffffffffffffffff1673ffffffffffffffffffffffffffffffffffffffff161461041b576040517f08c379a000000000000000000000000000000000000000000000000000000000815260040161041290610d6c565b60405180910390fd5b81600280600381111561043157610430610bfa565b5b6001600084815260200190815260200160002060030160009054906101000a900460ff16600381111561046757610466610bfa565b5b146104a7576040517f08c379a000000000000000000000000000000000000000000000000000000000815260040161049e90610dd8565b60405180910390fd5b60006001600086815260200190815260200160002090506000816002015490506000826002018190555060038260030160006101000a81548160ff021916908360038111156104f9576104f8610bfa565b5b02179055508160010160009054906101000a900473ffffffffffffffffffffffffffffffffffffffff1673ffffffffffffffffffffffffffffffffffffffff166108fc829081150290604051600060405180830381858888f19350505050158015610568573d6000803e3d6000fd5b50857fc8ef479acdbffd729d96117b951d1c3ee85d98ef42699aec806bc4f0b522461d826040516105999190610b9e565b60405180910390a2505050505050565b6000806000806000600160008781526020019081526020016000206040518060800160405290816000820160009054906101000a900473ffffffffffffffffffffffffffffffffffffffff1673ffffffffffffffffffffffffffffffffffffffff1673ffffffffffffffffffffffffffffffffffffffff1681526020016001820160009054906101000a900473ffffffffffffffffffffffffffffffffffffffff1673ffffffffffffffffffffffffffffffffffffffff1673ffffffffffffffffffffffffffffffffffffffff168152602001600282015481526020016003820160009054906101000a900460ff1660038111156106aa576106a9610bfa565b5b60038111156106bc576106bb610bfa565b5b81525050905080600001518160200151826040015183606001519450945094509450509193509193565b803373ffffffffffffffffffffffffffffffffffffffff166001600083815260200190815260200160002060010160009054906101000a900473ffffffffffffffffffffffffffffffffffffffff1673ffffffffffffffffffffffffffffffffffffffff161461078b576040517f08c379a000000000000000000000000000000000000000000000000000000000815260040161078290610eb0565b60405180910390fd5b8160018060038111156107a1576107a0610bfa565b5b6001600084815260200190815260200160002060030160009054906101000a900460ff1660038111156107d7576107d6610bfa565b5b14610817576040517f08c379a000000000000000000000000000000000000000000000000000000000815260040161080e90610dd8565b60405180910390fd5b60026001600086815260200190815260200160002060030160006101000a81548160ff0219169083600381111561085157610850610bfa565b5b0217905550837f02244c8529cb95e213ee542e76e7776342b3dabd10203d01472bbf4441be892960405160405180910390a250505050565b60008073ffffffffffffffffffffffffffffffffffffffff168273ffffffffffffffffffffffffffffffffffffffff16036108f9576040517f08c379a00000000000000000000000000000000000000000000000000000000081526004016108f090610f1c565b60405180910390fd5b3373ffffffffffffffffffffffffffffffffffffffff168273ffffffffffffffffffffffffffffffffffffffff1603610967576040517f08c379a000000000000000000000000000000000000000000000000000000000815260040161095e90610fae565b60405180910390fd5b60016000808282546109799190610ffd565b9250508190555060405180608001604052803373ffffffffffffffffffffffffffffffffffffffff1681526020018373ffffffffffffffffffffffffffffffffffffffff16815260200160008152602001600060038111156109de576109dd610bfa565b5b815250600160008054815260200190815260200160002060008201518160000160006101000a81548173ffffffffffffffffffffffffffffffffffffffff021916908373ffffffffffffffffffffffffffffffffffffffff16021790555060208201518160010160006101000a81548173ffffffffffffffffffffffffffffffffffffffff021916908373ffffffffffffffffffffffffffffffffffffffff1602179055506040820151816002015560608201518160030160006101000a81548160ff02191690836003811115610ab857610ab7610bfa565b5b02179055509050508173ffffffffffffffffffffffffffffffffffffffff163373ffffffffffffffffffffffffffffffffffffffff166000547fb8a95c94eaef926728b4c32140db94a2588d56eb892b916b7cce579d783e19a360405160405180910390a46000549050919050565b600080fd5b6000819050919050565b610b3f81610b2c565b8114610b4a57600080fd5b50565b600081359050610b5c81610b36565b92915050565b600060208284031215610b7857610b77610b27565b5b6000610b8684828501610b4d565b91505092915050565b610b9881610b2c565b82525050565b6000602082019050610bb36000830184610b8f565b92915050565b600073ffffffffffffffffffffffffffffffffffffffff82169050919050565b6000610be482610bb9565b9050919050565b610bf481610bd9565b82525050565b7f4e487b7100000000000000000000000000000000000000000000000000000000600052602160045260246000fd5b60048110610c3a57610c39610bfa565b5b50565b6000819050610c4b82610c29565b919050565b6000610c5b82610c3d565b9050919050565b610c6b81610c50565b82525050565b6000608082019050610c866000830187610beb565b610c936020830186610beb565b610ca06040830185610b8f565b610cad6060830184610c62565b95945050505050565b610cbf81610bd9565b8114610cca57600080fd5b50565b600081359050610cdc81610cb6565b92915050565b600060208284031215610cf857610cf7610b27565b5b6000610d0684828501610ccd565b91505092915050565b600082825260208201905092915050565b7f4f6e6c7920636c69656e742063616e2063616c6c000000000000000000000000600082015250565b6000610d56601483610d0f565b9150610d6182610d20565b602082019050919050565b60006020820190508181036000830152610d8581610d49565b9050919050565b7f496e76616c696420657363726f77207374617475730000000000000000000000600082015250565b6000610dc2601583610d0f565b9150610dcd82610d8c565b602082019050919050565b60006020820190508181036000830152610df181610db5565b9050919050565b7f416d6f756e74206d7573742062652067726561746572207468616e207a65726f600082015250565b6000610e2e602083610d0f565b9150610e3982610df8565b602082019050919050565b60006020820190508181036000830152610e5d81610e21565b9050919050565b7f4f6e6c7920667265656c616e6365722063616e2063616c6c0000000000000000600082015250565b6000610e9a601883610d0f565b9150610ea582610e64565b602082019050919050565b60006020820190508181036000830152610ec981610e8d565b9050919050565b7f496e76616c696420667265656c616e6365720000000000000000000000000000600082015250565b6000610f06601283610d0f565b9150610f1182610ed0565b602082019050919050565b60006020820190508181036000830152610f3581610ef9565b9050919050565b7f467265656c616e636572206d757374206469666665722066726f6d20636c696560008201527f6e74000000000000000000000000000000000000000000000000000000000000602082015250565b6000610f98602283610d0f565b9150610fa382610f3c565b604082019050919050565b60006020820190508181036000830152610fc781610f8b565b9050919050565b7f4e487b7100000000000000000000000000000000000000000000000000000000600052601160045260246000fd5b600061100882610b2c565b915061101383610b2c565b925082820190508082111561102b5761102a610fce565b5b9291505056fea2646970667358221220cf06a07572484198253d05d8e4fe743349e9e10cc5952f6bb351b1d593f1639b64736f6c63430008180033",
  "linkReferences": {},
  "deployedLinkReferences": {}
}